:020000040800F2
:10000000FC3F00200D0F0000E90D0000E90D00008D
:10001000E90D0000E90D0000E90D0000E90D000008
:10002000E90D0000E90D0000E90D0000E90D0000F8
:10003000E90D0000E90D0000E90D0000E90D0000E8
:10004000E90D0000E90D0000E90D0000E90D0000D8
:10005000E90D0000E90D0000E90D0000E90D0000C8
:10006000E90D0000E90D0000E90D0000E90D0000B8
:10007000E90D0000E90D0000E90D0000E90D0000A8
:10008000E90D0000E90D0000E90D0000E90D000098
:10009000E90D0000E90D0000E90D0000E90D000088
:1000A000E90D0000E90D0000E90D0000E90D000078
:1000B000E90D0000E90D0000E90D0000E90D000068
:1000C00000B515490140084600220BE013481CE02A
:1000D00013481AE0134818E0134816E0134814E0D8
:1000E000134812E013498842F0D013498842EFD0F8
:1000F00012498842EED012498842EDD01149884217
:10010000ECD011498842EBD01046104909680A46E4
:1001100002430E490A6000BD00FCFFFF0000020020
:100120000000040000000800000010000000200093
:10013000000040000000004800040048000800489B
:10014000000C004800100048001400481410024041
:1001500000B586B004910592A44B03400293FFF7CB
:10016000AFFF049B9BB2FF2B21D1029B1C68A04BCD
:1001700020461840059C9F4B9C4212D19E4B044642
:100180001C43029B1C60029B1D1D2C689B4B234043
:100190002B60029B1D4608352C68994B23432B602E
:1001A00021E1059B422B02D1029B18601BE1049CBC
:1001B000A4B2944B9C4221D1029B1C68904B2340DB
:1001C0001846059C8B4B9C4212D18F4B04461C4316
:1001D000029B1C60029B1D1D2C688C4B23402B60D6
:1001E000029B1D4608352C68814B23432B60FAE0A7
:1001F000059B422B02D1029B1860F4E0049CA4B240
:100200007F4B9C4217D1059C7A4B9C420CD1804C71
:10021000029B1C60029B1C1D00232360029B1C464A
:1002200008347C4B2360DEE0059B422B03D1002485
:10023000029B1C60D7E0059C01232340002B02D0C9
:10024000032007460FE0059C08232340002B01D024
:10025000022007E0059C04232340002B01D001204D
:1002600000E000200746059C6B4B2340002B01D08B
:10027000032207E0059C694B2340002B01D001229B
:1002800000E00022059C20232340002B01D0012107
:1002900000E00021059CFF2301332340002B02D006
:1002A0000224204608E0059C80232340002B01D037
:1002B000012400E00024204600230193019B102B21
:1002C00000D390E0019D01231C46AC40049B9BB2EF
:1002D0002340A34200D082E0019B5D00032423461B
:1002E000AB40DC43029B1B681C40029B1C60019BD3
:1002F0005B003C469C40029B1B681C43029B1C60AD
:10030000059C0C232340002B27D0029B1E46083659
:10031000019B5D0003242346AB40DC43336823404C
:100320003360029B1D460835019B5B0014469C40D0
:100330002B6823432B60029B1E1D019D0124234635
:10034000AB40DC43336823403360029B1D1D019B9F
:100350000C469C402B6823432B60029B1E460C36A8
:10036000019B5D0003242346AB40DC4333682340FC
:100370003360029B1D460C35019B5B0004469C408C
:100380002B6823432B60059C08232340002B26D099
:10039000059C234B23401B0D0093019B072B06D983
:1003A000029B24330393019B1E46083E03E0029BFD
:1003B00020330393019EB5000F242346AB40DC435A
:1003C000039B1B681C40039B1C60009DEDB2B300A7
:1003D0002C469C40039B1B681C43039B1C60019B99
:1003E000013301936AE706B000BD00BF00FCFFFFC8
:1003F0000000FFFF140008005555000000FFFFFF3C
:10040000FFFF000000FF000000005555FF00FFFF48
:1004100055555555FFFFFFFF000808000004000078
:100420000000F00000B583B00C46FF2203461340E5
:100430001A0915460F2219461140030A0F221A40C5
:10044000104611E0204A02921AE0204A029217E078
:100450001F4A029214E01F4A029211E01E4A0292C1
:100460000EE01E4A02920BE0002DEBD0012DECD0E5
:10047000022DEDD0032DEED0042DEFD0052DF0D0C0
:1004800001228A400090019191B222460298FFF722
:100490005FFE01990098029A15462035072902D976
:1004A00004350839FFE78C000F231A46A240D343D6
:1004B0002A681A402A608A00034693402A681A4331
:1004C0002A6003B000BD00BF0000004800040048DF
:1004D00000080048000C00480010004800140048C4
:1004E00000B50148006800BD0000002081B03AB4AA
:1004F000140002D102460C4813E0134602460020C5
:100500002021012409E01546CD409D4205D31D461A
:100510008D40521B25468D4040190D46491E002D29
:10052000F1DC3ABC02E000BFFFFFFFFF01B0704703
:1005300000B582B00024A10041180A680C498A4223
:1005400013D001463431A300C91809680A46C118FE
:1005500009680090019408461146FFF763FF019C6B
:10056000A4B200980134A4B2E5E702B000BD00BF18
:10057000FFFFFFFF00B501461C310A682021114032
:10058000490988B200BDFFFF00B581B00091014666
:10059000009880B20A461C32136880221A40D209A1
:1005A000002A00D1F6E70A462832106001B000BDEB
:1005B00000B501461C310A6840211140890988B202
:1005C00000BDFFFF00B581B0034619460091FFF75B
:1005D00087FF21490A46424300990A601F490A6879
:1005E000F02111400A091E4989180878C0B21A1D65
:1005F0001968C140116019490A681A4911400A0A6C
:10060000174989180978C8B21A460832191D0968AD
:10061000C140116014490A6801211140002904D029
:100620001A460C321149116014E0194608310A6863
:100630000F498A4207D91A460C321946083109680F
:100640008908116006E01A460C321946083109681B
:100650004908116001B000BDE80300000410024029
:10066000E80F00000007000034100240809FD50012
:1006700000366E0100B501461C310A682021114088
:100680004909002900D1F6E701462431096888B2FA
:1006900000BDFFFF00B50248FFF76CFF00BD00BFC3
:1006A0000038014000B50248FFF7E4FF00BD00BF7D
:1006B0000038014000B581B20148FFF765FF00BD79
:1006C0000038014000B50248FFF772FF00BD00BFCF
:1006D0000038014000B58AB007910146089209939D
:1006E0000B9CA4B20B940C9C0C940C246C440091B5
:1006F0002046FFF767FF0099594CA14214D1594E8B
:1007000034680125AD032C433460574D574C2560A8
:10071000574D584C2560584D584C2560584D594CF4
:100720002560059C019446E0574CA14214D1574ED8
:10073000346801256D042C433460554D4B4C2560C5
:10074000544D4C4C2560544D4C4C2560534D4D4CF4
:100750002560059C01942EE0514CA14214D14B4ED2
:1007600034680125AD042C4334604E4D3F4C256068
:100770004D4D404C25604D4D404C25604C4D414CFD
:100780002560059C019416E04A4CA14213D13F4ECE
:1007900034680125ED042C433460474D334C25600B
:1007A000464D344C2560464D344C2560454D354C06
:1007B0002560059C019400910C98FFF7B9FE009903
:1007C0000C680125AC430C600D1D00242C600E1D2F
:1007D00035680B9CA4B22C43346000240C600D6877
:1007E000089CA4B22C430C60099CA4B2002C04D039
:1007F000099DADB2344C2C4309940D68099CA4B2F8
:100800002C430C600D680D242C430C600D460835FC
:1008100000242C60019D192428466043079CA200F7
:100820000091FFF763FE07466422FFF75FFE0401B5
:1008300002942609642534466C433C1B240120465F
:1008400032306422FFF752FE00990F2405462540FE
:10085000029C2C430D460C35A4B22C600AB000BD9E
:100860000038014018100240B506000004000020C6
:10087000A506000008000020950600000C000020DE
:10088000C506000010000020004400401C1002407B
:10089000FFFFFFFFFFFFFFFFFFFFFFFFFFFFFFFF68
:1008A00000480040FFFFFFFFFFFFFFFFFFFFFFFFCC
:1008B000FFFFFFFF004C0040FFFFFFFFFFFFFFFFB8
:1008C000FFFFFFFFFFFFFFFF0004000000B5024A2B
:1008D00089B2FFF73DFC00BD1400080000B5019D82
:1008E0002C4610B408B493B28AB201460248FFF70E
:1008F000F1FE02B000BD00BF0038014000B50E4B54
:1009000019680122120311431960FFF7D3FEFFF7A4
:10091000D9FE002806D1084B1968012212031143A1
:100920001960F4E7044B196801221203914319601E
:10093000FFF7B8FE00BD00BF1404004800B5422216
:1009400089B2FFF705FC00BD00B5FFF7A3FE012843
:1009500003D1FFF7A7FEC0B200E0F6E700BDFFFF3E
:1009600000B5212805D1324B1968102211431960B6
:100970005DE0222805D12E4B196820221143196011
:1009800055E0232805D12A4B1968402211431960EC
:100990004DE0242805D1264B1968802211431960A7
:1009A00045E0252805D1234B19680222114319601F
:1009B0003DE0262805D11F4B196804221143196018
:1009C00035E0272806D11B4B19680122D2031143B9
:1009D00019602CE0282806D1164B19680122520311
:1009E0001143196023E0292806D1114B196801220F
:1009F0001202114319601AE02A2806D10D4B19681A
:100A0000012292031143196011E02B2806D1094BF2
:100A100019680122D2021143196008E02C2806D17E
:100A2000044B19680122920211431960FFE700BDCF
:100A3000140000481404004800B5312805D1324B99
:100A400019681022914319605DE0322805D12E4BC0
:100A5000196820229143196055E0332805D12A4BAB
:100A600019684022914319604DE0342805D1264B86
:100A7000196880229143196045E0352805D1234B40
:100A800019680222914319603DE0362805D11F4BB9
:100A9000196804229143196035E0372806D11B4BB1
:100AA00019680122D203914319602CE0382806D13D
:100AB000164B1968012252039143196023E039282B
:100AC00006D1114B196801221202914319601AE0F4
:100AD0003A2806D10D4B19680122920391431960FF
:100AE00011E03B2806D1094B19680122D20291433B
:100AF000196008E03C2806D1044B196801229202D3
:100B000091431960FFE700BD140000481404004839
:100B100081B03C787F1C3470761CAE42F9D101B0B4
:100B20007047FFFF81B01948016801200143174851
:100B300001601748016817480140154801601348D3
:100B400001681548014011480160104801681348C8
:100B500001400E4801600E480168114801400C48F0
:100B6000016010480168104801400E4801600F48BC
:100B700001680F4801400D4801600E4801680E48A9
:100B800001400C48016001B0704700BF00100240F6
:100B9000041002400CB8FFF8FFFFF6FEFFFFFBFF5A
:100BA000FFFFC0FF2C100240F0FFFFFF301002409B
:100BB000ACFEFFFF34100240FEFFFFFF00B54128EE
:100BC00009D14E490A6801211140002901D10120B3
:100BD00092E0002090E042280AD148490A680221A8
:100BE00011404908002901D1012085E0002083E05F
:100BF00043280AD141490A68042111408908002983
:100C000001D1012078E0002076E044280AD13B4958
:100C10000A6808211140C908002901D101206BE0B0
:100C2000002069E0452809D135490A6801211140B1
:100C3000002901D101205FE000205DE046280AD1B3
:100C40002F490A68202111404909002901D10120BA
:100C500052E0002050E047280AD129490A681021B3
:100C600011400909002901D1012045E0002043E09D
:100C700048280AD122490A6808211140C9080029D8
:100C800001D1012038E0002036E049280BD11C4971
:100C90000A68012149021140490A002901D10120B5
:100CA0002AE0002028E04A280BD115490A680121D2
:100CB00009021140090A002901D101201CE000208D
:100CC0001AE04B280AD10E490A6880211140C9094F
:100CD000002901D101200FE000200DE04C280AD1AD
:100CE00007490A68402111408909002901D10120E2
:100CF00002E0002000E0EE2000BD00BF1000004830
:100D00001004004800B5C4B2E0B2FFF7F7FDFF21C0
:100D10006140C8B2FFF7F2FD00BDFFFF00B5FF2143
:100D2000F1310848FFF7D2FD07490848FFF7CEFD2B
:100D30000F210448FFF702FE05490448FFF7FEFDB6
:100D400000BD00BF0000004806EC000000040048A1
:100D5000F903000000B5FFF7F7FDC3B2FFF7F4FD9C
:100D6000C2B2FF215940C9B2884201D1D8B201E0D4
:100D7000D3B2F3E700BDFFFF81B000240027AD45EB
:100D800003DCB54501DB2F466D463460361DAE42AF
:100D9000FBD1AF4203DD3D462668361DF5E701B0C5
:100DA0007047FFFF00B5074801B40023002200216F
:100DB0000548FFF793FD01B004490548FFF786FD9C
:100DC00000BD00BF7C0F0000004B000000100000C1
:100DD0000004004881B002490248016001B0704738
:100DE000803E00000000002000B5FEE700BDFFFFD0
:100DF00000B581B0324A334B334C344D344E354913
:100E00003548814206D935480168012001433348FD
:100E1000016005E031480168314801402F48016018
:100E2000FFF780FE2F4803602F4804602F481146CB
:100E300001402F4801602F4805602F4806600120BF
:100E40001040002808D02A480168022008400028E5
:100E500000D1F8E7194600E019462848104000285C
:100E60000AD00B462248016825480840002800D1D6
:100E7000F8E711461A4602E000911146009A21480F
:100E8000084000280ED01A4801681E48014318483F
:100E90000160174801681C480840002800D1F8E7A5
:100EA000134600E013460F4801680C200A46024032
:100EB00099000C200840824200D0F4E701B000BD48
:100EC00081000000000000000000000000000000A1
:100ED00080000000803E0000C05D00000020024055
:100EE000F8FFFFFF041002402C100240FFFF0F002C
:100EF00000100240241002403410024000000100A3
:100F0000000002000000000100000002FFF770FF77
:100F100000F072F8FFF75EFFFFF744FFFFF7FEFEF9
:100F2000FFF718FFC5B2102803D11120FFF7EAFE22
:100F300022E0212D08D32C2D06D8E8B2FFF710FDB2
:100F40000120FFF7DFFE17E0312D08D33C2D06D836
:100F5000E8B2FFF771FD0020FFF7D4FE0CE0412D51
:100F600007D34C2D05D8E8B2FFF728FEFFF7CAFEDD
:100F700002E0EE20FFF7C6FED2E7FEE7090100001F
:100F80000A010000FFFFFFFF00000000000000005A
:100F90000000000000000000000000000000000051
:100FA0000000000000000000000000000000000041
:100FB00018080000180800000000000000000000F1
:100FC0000000000000000000000000000000000021
:100FD0000000000000000000000000000000000011
:100FE00000000000000000000000000001020304F7
:100FF000010203040607080900B5034E034DFFF77D
:10100000BBFE00BD704700BF0000002014000020A0
:00000001FF
